:100000000C9437000C947B010C947B010C947B01C5
:100010000C947B010C947B010C947B010C947B0170
:100020000C947B010C947B010C947B010C947B0160
:100030000C947B010C947B010C947B010C947B0150
:100040000C947B010C947B010C947B010C947B0140
:100050000C947B010C947B010C947B010C947B0130
:100060000C947B010C947B0101000102800011249F
:100070001FBECFEFD8E0DEBFCDBFE8E6F0E040E046
:1000800017C0B591A59135912591059107FD0CC03B
:1000900095918591EF01F92FE82F05900D92A21708
:1000A000B307D9F7FE0104C01D92A217B307E1F709
:1000B000ED36F40731F70E9461000C945F00F8946C
:0200C000FFCF70
:1000C200F89480E284B915B80E946A018AE090E04F
:1000D2000E94D6001092C50087E68093C40088E192
:1000E2008093C1008EE08093C2007894C0ECD0E08F
:1000F20006EC10E00F2EF3E2EF2EF02D6894FF24B1
:10010200F5F880E090E00E94FC0084E190E00E941B
:10011200A8000E94400188818823ECF3F8018081C5
:10012200833219F0853241F0ECCF888185FFFDCF13
:10013200F801E082F5B8E5CF888185FFFDCF80E048
:0E01420090E00E94FC00F801808315B8DACF2F
:10015000CF93DF93EC01219AE0E8F0E080818F7B80
:10016000808380818068808320910001309101012B
:10017000032E000C440B550B69E07DE380E090E01A
:100180000E941E012150310941095109DE010E94DE
:10019000730124E630E040E050E00E941E013093FD
:0C01A000890020938800DF91CF91089522
:1001AC009C01E0E8F0E080818E7F8083808182601A
:1001BC008083E1E8F0E080818860808380818061C9
:1001CC0080833093010120930001032E000C440B1B
:1001DC00550B69E07DE380E090E00E941E01215008
:0C01EC00310930938700209386000895AD
:1001F800ECE7F0E09081907F90839081892B808359
:10020800EAE7F0E080818068808383E08A95F1F7EF
:100218000000808180648083808184FFFDCFEAE7CD
:10022800F0E08081806180831082809178009091D5
:0402380079000895AC
:10023C00A1E21A2EAA1BBB1BFD010DC0AA1FBB1FDE
:10024C00EE1FFF1FA217B307E407F50720F0A21B50
:10025C00B30BE40BF50B661F771F881F991F1A94BD
:10026C0069F760957095809590959B01AC01BD01E7
:04027C00CF01089511
:100280001092850010928400E1E8F0E080818160A6
:10029000808380818D7F80838081846080830895C6
:1002A000A29FB001B39FC001A39F700D811D1124B7
:0E02B000911DB29F700D811D1124911D0895A6
:1002BE000E945001A59F900DB49F900DA49F800D9C
:0602CE00911D11240895AA
:1002D400ECE7F0E0108280E4808387E080937A008A
:0202E40008957B
:1002E600B7FF0C945F010E945F01821B930B089578
:0402F6000C94000064
:00000001FF
