:100000000C9440000C942F040C942F040C942F0497
:100010000C942F040C942F040C942F040C942F0494
:100020000C942F040C942F040C942F040C942F0484
:100030000C942F040C942F040C942F040C942F0474
:100040000C942F040C942F040C942F040C942F0464
:100050000C942F040C942F040C942F040C942F0454
:100060000C942F040C942F040100010A80010A0152
:100070000D000862010D01118001110112000865D7
:1000800011241FBECFEFD8E0DEBFCDBFE8E6F0E021
:1000900040E017C0B591A59135912591059107FDD7
:1000A0000CC095918591EF01F92FE82F05900D92E5
:1000B000A217B307D9F7FE0104C01D92A217B30718
:1000C000E1F7E038F40731F70E946A000C94680009
:0400D000F894FFCFD2
:1000D400F8940E94DA038AE090E00E9407030E94E9
:1000E400C303789480E284B915B8CAE0D1E00F2E36
:1000F400F4E6FF2EF02D6894EE24E5F880E090E01D
:100104000E942D03682F70E080E090E00E946F024F
:1001140020E030E040EA50E40E94280420E030E08F
:1001240040E85AE30E9428044B015C0160930401F7
:1001340070930501809306019093070120E030E05D
:1001440048EC52E40E94240420E030E040E452E40D
:100154000E94FC030E940204709303016093020155
:100164006883F69E8001F79E100D1124B801012EBC
:10017400000C880B990B0E946F02A50194010E9448
:10018400FB0320E030E040E251E40E94240420E03C
:1001940030E040E452E40E94FC030E9402046093B5
:1001A4000801709309016983862F972F880F991F7F
:1001B400BC01660F771F660F771F680F791F600FEA
:1001C400711F072E000C880B990B0E946F02A5016A
:1001D40094010E94FB0320E030E040E452E40E94DA
:1001E400FC030E94020460930001709301016A837E
:1001F40084E190E00E94D9020E94A4030E94EB03D0
:10020400853219F0883449F079CF80910D019091AD
:100214000E01843091053CF018C0809111010E94B8
:10022400E30315B86BCFFC01E65FFE4F80810E94AB
:10023400E30380910D0190910E01019690930E01BC
:1002440080930D018430910574F310920E01109285
:060254000D01E5B853CFD7
:10025A0010C00E94100458F00E94090440F029F4CA
:10026A005F3F29F00C941E0451110C9418040C944D
:10027A002C040E944F0368F39923B1F3552391F399
:10028A00951B550BBB27AA2762177307840738F0FB
:10029A009F5F5F4F220F331F441FAA1FA9F335D058
:1002AA000E2E3AF0E0E832D091505040E695001C0C
:1002BA00CAF72BD0FE2F29D0660F771F881FBB1FC6
:1002CA00261737074807AB07B0E809F0BB0B802DA4
:1002DA00BF01FF2793585F4F3AF09E3F510578F0D0
:1002EA000C941E040C9418045F3FE4F3983ED4F374
:1002FA00869577956795B795F7959F5FC9F7880FA4
:10030A00911D9695879597F90895E1E0660F771FF5
:10031A00881FBB1F621773078407BA0720F0621B86
:0E032A00730B840BBA0BEE1F88F7E095089555
:100338000FC00E94090438F00E94100420F0952391
:1003480011F00C941E040C942C0411240C94180421
:100358000E944F0370F3959FC1F3950F50E0551F0E
:10036800629FF001729FBB27F00DB11D639FAA2702
:10037800F00DB11DAA1F649F6627B00DA11D661F51
:10038800829F2227B00DA11D621F739FB00DA11D72
:10039800621F839FA00D611D221F749F3327A00D2C
:1003A800611D231F849F600D211D822F762F6A2FC8
:1003B80011249F5750409AF0F1F088234AF0EE0F2D
:1003C800FF1FBB1F661F771F881F91505040A9F75A
:1003D8009E3F510580F00C941E040C9418045F3F56
:1003E800E4F3983ED4F3869577956795B795F79596
:1003F800E7959F5FC1F7FE2B880F911D969587950E
:0404080097F90895C3
:10040C0011C00E94090438F00E94100420F039F445
:10041C009F3F19F426F40C942C040EF4E095E7FBA2
:10042C000C941E04E92F0E944F0358F3BA1762076D
:10043C0073078407950720F079F4A6F50C9417043C
:10044C000EF4E0950B2EBA2FA02D0B01B9019001E3
:10045C000C01CA01A0011124FF27591B99F0593F27
:10046C0050F4503E68F11A16F040A22F232F342F6F
:10047C004427585FF3CF469537952795A795F040BD
:10048C005395C9F77EF41F16BA0B620B730B840BD2
:10049C00BAF09150A1F0FF0FBB1F661F771F881F8A
:1004AC00C2F70EC0BA0F621F731F841F48F48795E2
:1004BC0077956795B795F7959E3F08F0B0CF9395D4
:0E04CC00880F08F09927EE0F979587950895F1
:1004DA00E89409C097FB3EF49095809570956195D4
:1004EA007F4F8F4F9F4F9923A9F0F92F96E9BB278A
:1004FA009395F695879577956795B795F111F8CF06
:10050A00FAF4BB0F11F460FF1BC06F5F7F4F8F4F70
:10051A009F4F16C0882311F096E911C0772321F066
:10052A009EE8872F762F05C0662371F096E8862FFE
:10053A0070E060E02AF09A95660F771F881FDAF755
:0A054A00880F9695879597F908959C
:100554000E94570388F09F5798F0B92F9927B751F5
:10056400B0F0E1F0660F771F881F991F1AF0BA9553
:10057400C9F714C0B13091F00E941704B1E0089596
:100584000C941704672F782F8827B85F39F0B93F88
:10059400CCF3869577956795B395D9F73EF4909506
:0E05A4008095709561957F4F8F4F9F4F089502
:1005B200CF93DF93EC01219AE0E8F0E080818F7B1A
:1005C200808380818068808320910F0130911001A7
:1005D200032E000C440B550B69E07DE380E090E0B4
:1005E2000E9471032150310941095109DE010E9423
:1005F200F30324E630E040E050E00E9471033093C0
:0C060200890020938800DF91CF910895BB
:10060E009C01E0E8F0E080818E7F808380818260B3
:10061E008083E1E8F0E08081886080838081806162
:10062E0080833093100120930F01032E000C440B96
:10063E00550B69E07DE380E090E00E94710321504C
:0C064E0031093093870020938600089546
:10065A00ECE7F0E09081907F90839081892B8083F2
:10066A00EAE7F0E080818068808383E08A95F1F789
:10067A000000808180648083808184FFFDCFEAE767
:10068A00F0E080818061808310828091780090916F
:04069A007900089546
:10069E0057FD9058440F551F59F05F3F71F0479525
:1006AE00880F97FB991F61F09F3F79F0879508950A
:1006BE00121613061406551FF2CF4695F1DF08C029
:1006CE00161617061806991FF1CF86957105610546
:0406DE0008940895DF
:1006E200A1E21A2EAA1BBB1BFD010DC0AA1FBB1F34
:1006F200EE1FFF1FA217B307E407F50720F0A21BA6
:10070200B30BE40BF50B661F771F881F991F1A9412
:1007120069F760957095809590959B01AC01BD013C
:04072200CF01089566
:10072600092E0394000C11F4882352F0BB0F40F4F9
:10073600BF2B11F460FF04C06F5F7F4F8F4F9F4F39
:02074600089514
:100748001092850010928400E1E8F0E080818160D9
:10075800808380818D7F80838081846080830895F9
:10076800A29FB001B39FC001A39F700D811D1124EA
:0E077800911DB29F700D811D1124911D0895D9
:100786001092C50087E68093C40088E18093C1007B
:080796008EE08093C20008957B
:10079E000E94B403A59F900DB49F900DA49F800D51
:0607AE00911D11240895C5
:1007B400ECE7F0E0108280E4808387E080937A00A5
:0207C400089596
:1007C600E0ECF0E0908195FFFDCF8093C6000895A0
:1007D600E0ECF0E080818823ECF78091C600089574
:1007E600B7FF0C94CF030E94CF03821B930B08958F
:0E07F6005058BB27AA270E9406020C949303BA
:0E0804000E94AA026894B1110C941804089581
:0E08120000240A941616170618060906089503
:0E08200000240A941216130614060506089505
:0E082E00E894BB2766277727CB0197F908953A
:0C083C0097F99F6780E870E060E0089585
:080848000E942D010C949303A2
:080850000E949C010C9493032B
:060858009FEF80EC089503
:04085E000C940000F6
:0308620020202033
:01086500484A
:00000001FF
