:100000000C9437000C94EE020C94EE020C94EE0269
:100010000C94EE020C94EE020C94EE020C94EE02A0
:100020000C94EE020C94EE020C94EE020C94EE0290
:100030000C94EE020C94EE020C94EE020C94EE0280
:100040000C94EE020C94EE020C94EE020C94EE0270
:100050000C94EE020C94EE020C94EE020C94EE0260
:100060000C94EE020C94EE020100010280001124B7
:100070001FBECFEFD8E0DEBFCDBFE8E6F0E040E046
:1000800017C0B591A59135912591059107FD0CC03B
:1000900095918591EF01F92FE82F05900D92A21708
:1000A000B307D9F7FE0104C01D92A217B307E1F709
:1000B000ED36F40731F70E9461000C945F00F8946C
:0200C000FFCF70
:1000C200F8940E94B3028AE090E00E94E00110924C
:1000D200C50087E68093C40088E18093C1008EE06A
:1000E2008093C2007894C0ECD0E006EC10E00F2EB2
:1000F200F3E2FF2EF02D80E090E00E940602BC01A8
:10010200990F880B990B0E94480120E030E040EAE9
:1001120050E40E94E70220E030E040E85AE30E9407
:10012200E7024B015C0184E190E00E94B2010E946F
:100132007D02888185FFFDCFC501B4010E94830144
:10014200F801608388818823ECF3F801908188812B
:1001520085FFFDCFF801F082953279F018F49332E1
:1001620031F0C9CF9F3379F09F3BC9F0C4CF88816A
:1001720085FFFDCFF801F082BECF888185FFFDCFDC
:10018200F801F082B8CF0E949C0280E090E00E94C9
:10019200E0010E947D028FE30E94BC02ACCF0E946C
:1001A2009C0280E090E00E94B2010E947D028FEBEF
:0601B2000E94BC02A0CF78
:1001B8000FC00E94D30238F00E94DA0220F0952383
:1001C80011F00C94E1020C94EB0211240C94CD0272
:1001D8000E94280270F3959FC1F3950F50E0551FB8
:1001E800629FF001729FBB27F00DB11D639FAA2784
:1001F800F00DB11DAA1F649F6627B00DA11D661FD3
:10020800829F2227B00DA11D621F739FB00DA11DF3
:10021800621F839FA00D611D221F749F3327A00DAD
:10022800611D231F849F600D211D822F762F6A2F49
:1002380011249F5750409AF0F1F088234AF0EE0FAE
:10024800FF1FBB1F661F771F881F91505040A9F7DB
:100258009E3F510580F00C94E1020C94CD025F3F63
:10026800E4F3983ED4F3869577956795B795F79517
:10027800E7959F5FC1F7FE2B880F911D969587958F
:0402880097F9089545
:10028C00E89409C097FB3EF4909580957095619524
:10029C007F4F8F4F9F4F9923A9F0F92F96E9BB27DA
:1002AC009395F695879577956795B795F111F8CF56
:1002BC00FAF4BB0F11F460FF1BC06F5F7F4F8F4FC1
:1002CC009F4F16C0882311F096E911C0772321F0B7
:1002DC009EE8872F762F05C0662371F096E8862F4F
:1002EC0070E060E02AF09A95660F771F881FDAF7A6
:0A02FC00880F9695879597F90895ED
:100306000E94300288F09F5798F0B92F9927B7516D
:10031600B0F0E1F0660F771F881F991F1AF0BA95A3
:10032600C9F714C0B13091F00E94CC02B1E0089533
:100336000C94CC02672F782F8827B85F39F0B93F25
:10034600CCF3869577956795B395D9F73EF4909556
:0E0356008095709561957F4F8F4F9F4F089552
:10036400CF93DF93EC01219AE0E8F0E080818F7B6A
:100374008083808180688083209100013091010115
:10038400032E000C440B550B69E07DE380E090E004
:100394000E944A022150310941095109DE010E949B
:1003A400C40224E630E040E050E00E944A02309368
:0C03B400890020938800DF91CF9108950C
:1003C0009C01E0E8F0E080818E7F80838081826004
:1003D0008083E1E8F0E080818860808380818061B3
:1003E00080833093010120930001032E000C440B05
:1003F000550B69E07DE380E090E00E944A022150C5
:0C04000031093093870020938600089596
:10040C00ECE7F0E09081907F90839081892B808342
:10041C00EAE7F0E080818068808383E08A95F1F7D9
:10042C000000808180648083808184FFFDCFEAE7B7
:10043C00F0E08081806180831082809178009091BF
:04044C007900089596
:1004500057FD9058440F551F59F05F3F71F0479575
:10046000880F97FB991F61F09F3F79F0879508955A
:10047000121613061406551FF2CF4695F1DF08C079
:10048000161617061806991FF1CF86957105610596
:04049000089408952F
:10049400A1E21A2EAA1BBB1BFD010DC0AA1FBB1F84
:1004A400EE1FFF1FA217B307E407F50720F0A21BF6
:1004B400B30BE40BF50B661F771F881F991F1A9463
:1004C40069F760957095809590959B01AC01BD018D
:0404D400CF010895B7
:1004D800092E0394000C11F4882352F0BB0F40F44A
:1004E800BF2B11F460FF04C06F5F7F4F8F4F9F4F8A
:0204F800089565
:1004FA001092850010928400E1E8F0E0808181602A
:10050A00808380818D7F8083808184608083089549
:10051A00A29FB001B39FC001A39F700D811D11243A
:0E052A00911DB29F700D811D1124911D089529
:10053800E1E8F0E080818E7F808380818D7F8083F9
:0805480080818B7F8083089500
:100550000E948D02A59F900DB49F900DA49F800DC9
:06056000911D1124089515
:10056600ECE7F0E0108280E4808387E080937A00F5
:020576000895E6
:10057800E0ECF0E0908195FFFDCF8093C6000895F0
:10058800B7FF0C94A8020E94A802821B930B08953F
:0E059800E894BB2766277727CB0197F90895D3
:0E05A60000240A941616170618060906089572
:0E05B40000240A941216130614060506089574
:0C05C20097F99F6780E870E060E0089502
:0805CE000E94DC000C946C0299
:0605D6009FEF80EC089588
:0405DC000C9400007B
:00000001FF
