:100000000C9437000C94A1010C94A1010C94A10153
:100010000C94A1010C94A1010C94A1010C94A101D8
:100020000C94A1010C94A1010C94A1010C94A101C8
:100030000C94A1010C94A1010C94A1010C94A101B8
:100040000C94A1010C94A1010C94A1010C94A101A8
:100050000C94A1010C94A1010C94A1010C94A10198
:100060000C94A1010C94A101010001028000112453
:100070001FBECFEFD8E0DEBFCDBFE8E6F0E040E046
:1000800017C0B591A59135912591059107FD0CC03B
:1000900095918591EF01F92FE82F05900D92A21708
:1000A000B307D9F7FE0104C01D92A217B307E1F709
:1000B000ED36F40731F70E9461000C945F00F8946C
:0200C000FFCF70
:1000C200F8940E9488018AE090E00E94E800109271
:1000D200C50087E68093C40088E18093C1008EE06A
:1000E2008093C2007894C0ECD0E006EC10E00F2EB2
:1000F200F3E2FF2EF02D80E090E00E940E0184E1F9
:1001020090E00E94BA000E94520188818823ECF399
:10011200F8018081853279F018F4833231F0EBCF27
:100122008F3379F08F3BC9F0E6CF888185FFFDCF11
:10013200F801F082E0CF888185FFFDCFF801F082DF
:10014200DACF0E94710180E090E00E94E8000E94F4
:1001520052018FE30E949101CECF0E94710180E093
:1001620090E00E94BA000E9452018FEB0E9491011E
:02017200C2CFFA
:10017400CF93DF93EC01219AE0E8F0E080818F7B5C
:100184008083808180688083209100013091010107
:10019400032E000C440B550B69E07DE380E090E0F6
:1001A4000E9430012150310941095109DE010E94A8
:1001B400990124E630E040E050E00E9430013093A1
:0C01C400890020938800DF91CF910895FE
:1001D0009C01E0E8F0E080818E7F808380818260F6
:1001E0008083E1E8F0E080818860808380818061A5
:1001F00080833093010120930001032E000C440BF7
:10020000550B69E07DE380E090E00E9430012150D1
:0C02100031093093870020938600089588
:10021C00ECE7F0E09081907F90839081892B808334
:10022C00EAE7F0E080818068808383E08A95F1F7CB
:10023C000000808180648083808184FFFDCFEAE7A9
:10024C00F0E08081806180831082809178009091B1
:04025C007900089588
:10026000A1E21A2EAA1BBB1BFD010DC0AA1FBB1FBA
:10027000EE1FFF1FA217B307E407F50720F0A21B2C
:10028000B30BE40BF50B661F771F881F991F1A9499
:1002900069F760957095809590959B01AC01BD01C3
:0402A000CF010895ED
:1002A4001092850010928400E1E8F0E08081816082
:1002B400808380818D7F80838081846080830895A2
:1002C400A29FB001B39FC001A39F700D811D112493
:0E02D400911DB29F700D811D1124911D089582
:1002E200E1E8F0E080818E7F808380818D7F808352
:0802F20080818B7F8083089559
:1002FA000E946201A59F900DB49F900DA49F800D4E
:06030A00911D112408956D
:10031000ECE7F0E0108280E4808387E080937A004D
:0203200008953E
:10032200E0ECF0E0908195FFFDCF8093C600089548
:10033200B7FF0C947D010E947D01821B930B0895EF
:040342000C94000017
:00000001FF
