:100000000C9437000C94E1020C94E1020C94E10290
:100010000C94E1020C94E1020C94E1020C94E102D4
:100020000C94E1020C94E1020C94E1020C94E102C4
:100030000C94E1020C94E1020C94E1020C94E102B4
:100040000C94E1020C94E1020C94E1020C94E102A4
:100050000C94E1020C94E1020C94E1020C94E10294
:100060000C94E1020C94E1020100010280001124D1
:100070001FBECFEFD8E0DEBFCDBFE8E6F0E040E046
:1000800017C0B591A59135912591059107FD0CC03B
:1000900095918591EF01F92FE82F05900D92A21708
:1000A000B307D9F7FE0104C01D92A217B307E1F709
:1000B000ED36F40731F70E94CB000C945F00F89402
:0200C000FFCF70
:1000C2000FC00E94C60238F00E94CD0220F0952394
:1000D20011F00C94D4020C94DE0211240C94C00290
:1000E2000E94070270F3959FC1F3950F50E0551FD0
:1000F200629FF001729FBB27F00DB11D639FAA277B
:10010200F00DB11DAA1F649F6627B00DA11D661FC9
:10011200829F2227B00DA11D621F739FB00DA11DEA
:10012200621F839FA00D611D221F749F3327A00DA4
:10013200611D231F849F600D211D822F762F6A2F40
:1001420011249F5750409AF0F1F088234AF0EE0FA5
:10015200FF1FBB1F661F771F881F91505040A9F7D2
:100162009E3F510580F00C94D4020C94C0025F3F74
:10017200E4F3983ED4F3869577956795B795F7950E
:10018200E7959F5FC1F7FE2B880F911D9695879586
:0401920097F908953C
:10019600F8940E949E028AE090E00E94BF010E94AD
:1001A6007B02789480E090E00E94E501EC0184E116
:1001B60090E00E9491010E945C020E94AF0285328B
:1001C60069F018F4833231F0EDCF8F3319F18F3B9C
:1001D60069F1E8CF83E20E94A702E4CFBE01DD0FFA
:1001E600880B990B0E94270120E030E040EA50E49A
:1001F6000E94DA0220E030E040E85AE30E94DA0288
:100206000E946201C62F862F0E94A7028C2F0E9491
:10021600A702C8CF0E94870280E090E00E94BF013B
:100226000E945C028FE30E94A702BCCF0E94870255
:1002360080E090E00E9491010E945C028FEB0E9498
:04024600A702B0CF8C
:10024A00E89409C097FB3EF4909580957095619566
:10025A007F4F8F4F9F4F9923A9F0F92F96E9BB271C
:10026A009395F695879577956795B795F111F8CF98
:10027A00FAF4BB0F11F460FF1BC06F5F7F4F8F4F03
:10028A009F4F16C0882311F096E911C0772321F0F9
:10029A009EE8872F762F05C0662371F096E8862F91
:1002AA0070E060E02AF09A95660F771F881FDAF7E8
:0A02BA00880F9695879597F908952F
:1002C4000E940F0288F09F5798F0B92F9927B751D1
:1002D400B0F0E1F0660F771F881F991F1AF0BA95E6
:1002E400C9F714C0B13091F00E94BF02B1E0089583
:1002F4000C94BF02672F782F8827B85F39F0B93F75
:10030400CCF3869577956795B395D9F73EF4909598
:0E0314008095709561957F4F8F4F9F4F089594
:10032200CF93DF93EC01219AE0E8F0E080818F7BAC
:100332008083808180688083209100013091010157
:10034200032E000C440B550B69E07DE380E090E046
:100352000E9429022150310941095109DE010E94FE
:10036200B70224E630E040E050E00E9429023093D8
:0C037200890020938800DF91CF9108954E
:10037E009C01E0E8F0E080818E7F80838081826046
:10038E008083E1E8F0E080818860808380818061F5
:10039E0080833093010120930001032E000C440B47
:1003AE00550B69E07DE380E090E00E942902215028
:0C03BE00310930938700209386000895D9
:1003CA00ECE7F0E09081907F90839081892B808385
:1003DA00EAE7F0E080818068808383E08A95F1F71C
:1003EA000000808180648083808184FFFDCFEAE7FA
:1003FA00F0E0808180618083108280917800909102
:04040A0079000895D8
:10040E0057FD9058440F551F59F05F3F71F04795B7
:10041E00880F97FB991F61F09F3F79F0879508959C
:10042E00121613061406551FF2CF4695F1DF08C0BB
:10043E00161617061806991FF1CF869571056105D8
:04044E000894089571
:10045200A1E21A2EAA1BBB1BFD010DC0AA1FBB1FC6
:10046200EE1FFF1FA217B307E407F50720F0A21B38
:10047200B30BE40BF50B661F771F881F991F1A94A5
:1004820069F760957095809590959B01AC01BD01CF
:04049200CF010895F9
:10049600092E0394000C11F4882352F0BB0F40F48C
:1004A600BF2B11F460FF04C06F5F7F4F8F4F9F4FCC
:0204B6000895A7
:1004B8001092850010928400E1E8F0E0808181606C
:1004C800808380818D7F808380818460808308958C
:1004D800A29FB001B39FC001A39F700D811D11247D
:0E04E800911DB29F700D811D1124911D08956C
:1004F6001092C50087E68093C40088E18093C1000E
:080506008EE08093C20008950D
:10050E00E1E8F0E080818E7F808380818D7F808323
:08051E0080818B7F808308952A
:100526000E946C02A59F900DB49F900DA49F800D14
:06053600911D112408953F
:10053C00ECE7F0E0108280E4808387E080937A001F
:02054C00089510
:10054E00E0ECF0E0908195FFFDCF8093C60008951A
:10055E00E0ECF0E080818823ECF38091C6000895F2
:10056E00B7FF0C9493020E949302821B930B089583
:0E057E00E894BB2766277727CB0197F90895ED
:0E058C0000240A94161617061806090608958C
:0E059A0000240A94121613061406050608958E
:0C05A80097F99F6780E870E060E008951C
:0805B4000E9461000C944B024F
:0605BC009FEF80EC0895A2
:0405C2000C94000095
:00000001FF
