:100000000C9440000C941E020C941E020C941E02D0
:100010000C941E020C941E020C941E020C941E02E0
:100020000C941E020C941E020C941E020C941E02D0
:100030000C941E020C941E020C941E020C941E02C0
:100040000C941E020C941E020C941E020C941E02B0
:100050000C941E020C941E020C941E020C941E02A0
:100060000C941E020C941E0201000108800108017C
:100070000B000440010B010F80010F01100004432D
:1000800011241FBECFEFD8E0DEBFCDBFE8E6F0E021
:1000900040E017C0B591A59135912591059107FDD7
:1000A0000CC095918591EF01F92FE82F05900D92E5
:1000B000A217B307D9F7FE0104C01D92A217B30718
:1000C000E1F7E038F40731F70E946A000C94680009
:0400D000F894FFCFD2
:1000D400F8940E94FD018AE090E00E9435010E949C
:1000E400E601789480E284B915B80F2EF4E6EF2E79
:1000F400F12CF02DC8E0D1E00F2EF4E6CF2EF02D38
:100104000AE010E06894DD24D5F880E090E00E94D5
:100114005B019C01220F331F220F331F820F931F99
:10012400992314F481509C4F892F880F880B95953F
:100134009595909304018093050184E190E00E94D9
:1001440007010E94C7010E940E02853241F08834E3
:10015400E1F680910F010E94060215B8D6CFE09116
:100164000401F0910501CF01B7010E949F01605D78
:100174007F4F70930301609302016883C69E9001D0
:10018400C79E300D1124CF01B8010E949F01C901FF
:10019400861B970BC0969093070180930601898371
:1001A400AC01440F551F880F991F880F991F880FA2
:1001B400991F840F951F280F391F2E1B3F0B205D9D
:1001C4003F4F30930101209300012A8380910B015A
:1001D40090910C018430910594F4FC01E85FFE4F8A
:1001E40080810E94060280910B0190910C0101967E
:1001F40090930C0180930B018430910574F3109259
:0A0204000C0110920B01D5B880CF59
:10020E00CF93DF93EC01219AE0E8F0E080818F7BC1
:10021E00808380818068808320910D0130910E0152
:10022E00032E000C440B550B69E07DE380E090E05B
:10023E000E947D012150310941095109DE010E94C0
:10024E00160224E630E040E050E00E947D0130933B
:0C025E00890020938800DF91CF91089563
:10026A009C01E0E8F0E080818E7F8083808182605B
:10027A008083E1E8F0E0808188608083808180610A
:10028A00808330930E0120930D01032E000C440B42
:10029A00550B69E07DE380E090E00E947D012150EA
:0C02AA00310930938700209386000895EE
:1002B600ECE7F0E09081907F90839081892B80839A
:1002C600EAE7F0E080818068808383E08A95F1F731
:1002D6000000808180648083808184FFFDCFEAE70F
:1002E600F0E0808180618083108280917800909117
:0402F60079000895EE
:1002FA00A1E21A2EAA1BBB1BFD010DC0AA1FBB1F20
:10030A00EE1FFF1FA217B307E407F50720F0A21B91
:10031A00B30BE40BF50B661F771F881F991F1A94FE
:10032A0069F760957095809590959B01AC01BD0128
:04033A00CF01089552
:10033E0097FB072E16F4009407D077FD09D00E9484
:10034E00B30107FC05D03EF4909581959F4F08951B
:08035E00709561957F4F089531
:10036600AA1BBB1B51E107C0AA1FBB1FA617B707D5
:1003760010F0A61BB70B881F991F5A95A9F78095F1
:080386009095BC01CD01089522
:10038E001092850010928400E1E8F0E08081816097
:10039E00808380818D7F80838081846080830895B7
:1003AE00A29FB001B39FC001A39F700D811D1124A8
:0E03BE00911DB29F700D811D1124911D089597
:1003CC001092C50087E68093C40088E18093C10039
:0803DC008EE08093C200089539
:1003E4000E94D701A59F900DB49F900DA49F800DEE
:0603F400911D1124089583
:1003FA00ECE7F0E0108280E4808387E080937A0063
:02040A00089553
:10040C00E0ECF0E0908195FFFDCF8093C60008955D
:10041C00E0ECF0E080818823ECF78091C600089531
:10042C00B7FF0C94F2010E94F201821B930B08950A
:04043C000C9400001C
:0304400020202059
:010443004870
:00000001FF
