:100000000C9434000C9466000C9466000C944C0024
:100010000C9456000C9466000C9466000C946600D8
:100020000C9466000C9466000C9466000C946600B8
:100030000C9466000C9466000C9466000C946600A8
:100040000C9466000C9466000C9466000C94660098
:100050000C9466000C9466000C9466000C94660088
:100060000C9466000C94660011241FBECFEFD8E0FC
:10007000DEBFCDBF0E9460000C943E00F894FFCF1D
:10008000E8E6F0E0808181608083D89AEDE6F0E0D8
:080090008081816080830895E6
:100098001F920F920FB60F9211240F900FBE0F9060
:0400A8001F901895F8
:1000AC001F920F920FB60F9211240F900FBE0F904C
:0400BC001F901895E4
:0C00C000F8940E94400014B87894FFCF20
:0400CC000C94000090
:00000001FF
