:100000000C9434000C9454000C9454000C94540040
:100010000C944A000C9440000C9454000C9454002E
:100020000C9454000C9454000C9454000C94540000
:100030000C9454000C9454000C9454000C945400F0
:100040000C9454000C9454000C9454000C945400E0
:100050000C9454000C9454000C9454000C945400D0
:100060000C9454000C94540011241FBECFEFD8E020
:10007000DEBFCDBF0E9456000C943E00F894FFCF27
:100080001F920F920FB60F9211240F900FBE0F9078
:040090001F90189510
:100094001F920F920FB60F9211240F900FBE0F9064
:0400A4001F901895FC
:0400A8000C940000B4
:0200AC000895B5
:00000001FF
