:100000000C9434000C947D000C947D000C947D00C5
:100010000C947D000C947D000C947D000C947D006C
:100020000C947D000C947D000C947D000C947D005C
:100030000C947D000C947D000C947D000C947D004C
:100040000C947D000C947D000C947D000C947D003C
:100050000C947D000C947D000C947D000C947D002C
:100060000C947D000C947D0011241FBECFEFD8E0CE
:10007000DEBFCDBFE8E6F0E040E017C0B591A59146
:1000800035912591059107FD0CC095918591EF0162
:10009000F92FE82F05900D92A217B307D9F7FE01AB
:1000A00004C01D92A217B307E1F7E836F40731F751
:0C00B0000E9469000C945C00F894FFCFE3
:1000BC00CF93C62F2E980E9472008C2F0E94720034
:0600CC002E9ACF91089569
:1000D200F8940E947800789469E082E00E945E00C1
:0200E200FBCF52
:0C00E4008EBD0DB407FEFDCF8EB5089553
:0A00F0002A9A84B18C6284B9089545
:0400FA000C94000062
:00000001FF
