:100000000C9438000C948E000C948E000C948E008E
:100010000C948E000C948E000C948E000C948E0028
:100020000C948E000C948E000C948E000C948E0018
:100030000C948E000C948E000C948E000C948E0008
:100040000C948E000C948E000C948E000C948E00F8
:100050000C948E000C948E000C948E000C948E00E8
:100060000C948E000C948E00010001010001200010
:1000700011241FBECFEFD8E0DEBFCDBFE8E6F0E031
:1000800040E017C0B591A59135912591059107FDE7
:100090000CC095918591EF01F92FE82F05900D92F5
:1000A000A217B307D9F7FE0104C01D92A217B30728
:1000B000E1F7EF36F40731F70E9462000C9460001C
:0400C000F894FFCFE2
:1000C400F8940E9472007894C6ECD0E00E948600F6
:1000D40088818332D9F7809100010E947E00F6CF97
:1000E4001092C50087E08093C40088E18093C1002A
:0800F4008EE08093C200089524
:1000FC00E0ECF0E0908195FFFDCF8093C600089571
:10010C00E0ECF0E080818823ECF38091C600089548
:04011C000C9400003F
:0101200023BB
:00000001FF
