:100000000C943A000C948F000C948F000C948F0089
:100010000C948F000C948F000C948F000C948F0024
:100020000C948F000C948F000C948F000C948F0014
:100030000C948F000C948F000C948F000C948F0004
:100040000C948F000C948F000C948F000C948F00F4
:100050000C948F000C948F000C948F000C948F00E4
:100060000C948F000C948F000100010180010101AC
:100070000200012211241FBECFEFD8E0DEBFCDBFAA
:10008000E8E6F0E040E017C0B591A59135912591E3
:10009000059107FD0CC095918591EF01F92FE82F8F
:1000A00005900D92A217B307D9F7FE0104C01D9267
:1000B000A217B307E1F7E437F40731F70E946400B1
:0800C0000C946200F894FFCFDC
:1000C800F8940E94730078940E948700809300013E
:0E00D8008332D1F7809101010E947F00F5CFA5
:1000E6001092C50087E68093C40088E18093C10022
:0800F6008EE08093C200089522
:1000FE00E0ECF0E0908195FFFDCF8093C60008956F
:10010E00E0ECF0E080818823ECF38091C600089546
:04011E000C9400003D
:0101220023B9
:00000001FF
