:100000000C9438000C948B000C948B000C948B0097
:100010000C948B000C948B000C948B000C948B0034
:100020000C948B000C948B000C948B000C948B0024
:100030000C948B000C948B000C948B000C948B0014
:100040000C948B000C948B000C948B000C948B0004
:100050000C948B000C948B000C948B000C948B00F4
:100060000C948B000C948B000100010100011A001C
:1000700011241FBECFEFD8E0DEBFCDBFE8E6F0E031
:1000800040E017C0B591A59135912591059107FDE7
:100090000CC095918591EF01F92FE82F05900D92F5
:1000A000A217B307D9F7FE0104C01D92A217B30728
:1000B000E1F7EF36F40731F70E9462000C9460001C
:0400C000F894FFCFE2
:1000C400F8940E946F0078940E9483008332E1F7D1
:0A00D400809100010E947B00F7CF2D
:1000DE001092C50087E08093C40088E18093C10030
:0800EE008EE08093C20008952A
:1000F600E0ECF0E0908195FFFDCF8093C600089577
:10010600E0ECF0E080818823ECF38091C60008954E
:040116000C94000045
:01011A0023C1
:00000001FF
