:100000000C9438000C94B4000C94B4000C94B4001C
:100010000C94B4000C94B4000C94B4000C94B40090
:100020000C94B4000C94B4000C94B4000C94B40080
:100030000C94B4000C94B4000C94B4000C94B40070
:100040000C94B4000C94B4000C94B4000C94B40060
:100050000C94B4000C94B4000C94B4000C94B40050
:100060000C94B4000C94B4000100010800016C0071
:1000700011241FBECFEFD8E0DEBFCDBFE8E6F0E031
:1000800040E017C0B591A59135912591059107FDE7
:100090000CC095918591EF01F92FE82F05900D92F5
:1000A000A217B307D9F7FE0104C01D92A217B30728
:1000B000E1F7EF36F40731F70E9462000C9460001C
:0400C000F894FFCFE2
:1000C400F8940E94980080E284B985B9789401E09C
:1000D40010E0C0E20E94AC00833251F08532D1F7C7
:1000E4008091050190910601843091053CF018C07F
:1000F400809107010E94A40015B8ECCFFC01E050E8
:10010400FF4F80810E94A400809105019091060117
:10011400019690930601809305018430910574F350
:0C0124001093060100930501C5B9D4CF6B
:100130001092C50087E68093C40088E18093C100D7
:080140008EE08093C2000895D7
:10014800E0ECF0E0908195FFFDCF8093C600089524
:10015800E0ECF0E080818823ECF78091C6000895F8
:040168000C940000F3
:05016C002533322000E4
:0201710001008B
:010173002368
:00000001FF
