:100000000C9437000C9448010C9448010C9448015E
:100010000C9448010C9448010C9448010C9448013C
:100020000C9448010C9448010C9448010C9448012C
:100030000C9448010C9448010C9448010C9448011C
:100040000C9448010C9448010C9448010C9448010C
:100050000C9448010C9448010C9448010C944801FC
:100060000C9448010C944801010001028000112405
:100070001FBECFEFD8E0DEBFCDBFE8E6F0E040E046
:1000800017C0B591A59135912591059107FD0CC03B
:1000900095918591EF01F92FE82F05900D92A21708
:1000A000B307D9F7FE0104C01D92A217B307E1F709
:1000B000ED36F40731F70E9405010C945F00F894C7
:0200C000FFCF70
:1000C200CF93DF93EC01219AE0E8F0E080818F7B0F
:1000D20080838081806880832091000130910101BA
:1000E200032E000C440B550B69E07DE380E090E0A9
:1000F2000E94E3002150310941095109DE010E94A9
:10010200400124E630E040E050E00E94E3003093FA
:0C011200890020938800DF91CF910895B0
:10011E00CF93DF93EC01229AE0E8F0E080818F7EAE
:10012E008083808180628083209100013091010163
:10013E00032E000C440B550B69E07DE380E090E04C
:10014E000E94E3002150310941095109DE010E944C
:10015E00400124E630E040E050E00E94E30030939E
:0C016E008B0020938A00DF91CF91089550
:10017A009C01E0E8F0E080818E7F8083808182604C
:10018A008083E1E8F0E080818860808380818061FB
:10019A0080833093010120930001032E000C440B4D
:1001AA00550B69E07DE380E090E00E94E300215076
:0C01BA00310930938700209386000895DF
:1001C600A1E21A2EAA1BBB1BFD010DC0AA1FBB1F55
:1001D600EE1FFF1FA217B307E407F50720F0A21BC7
:1001E600B30BE40BF50B661F771F881F991F1A9434
:1001F60069F760957095809590959B01AC01BD015E
:04020600CF01089587
:10020A00F8948AE090E00E94BD00789484E190E03E
:10021A000E9461008EE190E00E948F000E94160108
:02022A00FFCF04
:10022C001092850010928400E1E8F0E080818160FA
:10023C00808380818D7F808380818460808308951A
:10024C00A29FB001B39FC001A39F700D811D11240B
:0E025C00911DB29F700D811D1124911D0895FA
:10026A000E942601A59F900DB49F900DA49F800D1A
:06027A00911D11240895FE
:10028000B7FF0C9435010E943501821B930B089532
:040290000C940000CA
:00000001FF
