:100000000C9437000C9416010C9416010C941601F4
:100010000C9416010C9416010C9416010C94160104
:100020000C9416010C9416010C9416010C941601F4
:100030000C9416010C9416010C9416010C941601E4
:100040000C9416010C9416010C9416010C941601D4
:100050000C9416010C9416010C9416010C941601C4
:100060000C9416010C941601010001028000112469
:100070001FBECFEFD8E0DEBFCDBFE8E6F0E040E046
:1000800017C0B591A59135912591059107FD0CC03B
:1000900095918591EF01F92FE82F05900D92A21708
:1000A000B307D9F7FE0104C01D92A217B307E1F709
:1000B000ED36F40731F70E94F6000C945F00F894D7
:0200C000FFCF70
:1000C200CF93DF93EC01219AE0E8F0E080818F7B0F
:1000D20080838081806880832091000130910101BA
:1000E200032E000C440B550B69E07DE380E090E0A9
:1000F2000E94B5002150310941095109DE010E94D7
:100102000E0124E630E040E050E00E94B50030935A
:0C011200890020938800DF91CF910895B0
:10011E009C01E0E8F0E080818E7F808380818260A8
:10012E008083E1E8F0E08081886080838081806157
:10013E0080833093010120930001032E000C440BA9
:10014E00550B69E07DE380E090E00E94B500215000
:0C015E003109309387002093860008953B
:10016A00A1E21A2EAA1BBB1BFD010DC0AA1FBB1FB1
:10017A00EE1FFF1FA217B307E407F50720F0A21B23
:10018A00B30BE40BF50B661F771F881F991F1A9490
:10019A0069F760957095809590959B01AC01BD01BA
:0401AA00CF010895E4
:1001AE001092850010928400E1E8F0E08081816079
:1001BE00808380818D7F8083808184608083089599
:1001CE00A29FB001B39FC001A39F700D811D11248A
:0E01DE00911DB29F700D811D1124911D089579
:1001EC00F8948AE090E00E948F00789484E190E08B
:0A01FC000E9461000E94D700FFCFAF
:100206000E94E700A59F900DB49F900DA49F800DBE
:06021600911D1124089562
:10021C00B7FF0C9403010E940301821B930B0895FA
:04022C000C9400002E
:00000001FF
