:100000000C9434000C942D020C942D020C942D02AF
:100010000C942D020C942D020C942D020C942D02A4
:100020000C942D020C942D020C942D020C942D0294
:100030000C942D020C942D020C942D020C942D0284
:100040000C942D020C942D020C942D020C942D0274
:100050000C942D020C942D020C942D020C942D0264
:100060000C942D020C942D0211241FBECFEFD8E06A
:10007000DEBFCDBF0E9400020C943E00F894FFCF7B
:10008000CF9380E00E94E40187EA91E60197F1F7BF
:1000900000C0000036B146B196B126B150E04F6DB8
:1000A0005F6F409550955595479555954795559552
:1000B00047955595479555954795440F551F892F59
:1000C00090E08F6B9F6F80959095082E892F000C84
:1000D000881F990B000C881F991F880F991F880F84
:1000E000991F482B592B832F90E08F6E9F6F80951F
:1000F00090959595879595958795959587959595DF
:100100008795842B952B30E02F673F6F2095309596
:10011000220F232F221F330B220F331F220F331FD7
:10012000220F331F822B932B8230910561F01CF438
:10013000019739F00EC08430910539F0089739F0F5
:1001400008C0C7E307C0C4E305C0C1E303C0CEE2F3
:1001500001C0C0E081E00E94E40187EA91E60197D6
:10016000F1F700C0000036B146B196B126B150E0BB
:100170004F6D5F6F409550955595479555954795AF
:10018000559547955595479555954795440F551F56
:10019000892F90E08F6B9F6F80959095082E892F07
:1001A000000C881F990B000C881F991F880F991F3E
:1001B000880F991F482B592B832F90E08F6E9F6FCC
:1001C0008095909595958795959587959595879523
:1001D00095958795842B952B30E02F673F6F209561
:1001E0003095220F232F221F330B220F331F220F94
:1001F000331F220F331F822B932B8230910561F026
:100200001CF4019739F00DC08430910539F008973E
:1002100039F007C0C8E305C0C5E303C0C2E301C0AD
:10022000C0E382E00E94E40187EA91E60197F1F7DA
:1002300000C0000036B146B196B126B150E04F6D16
:100240005F6F4095509555954795559547955595B0
:1002500047955595479555954795440F551F892FB7
:1002600090E08F6B9F6F80959095082E892F000CE2
:10027000881F990B000C881F991F880F991F880FE2
:10028000991F482B592B832F90E08F6E9F6F80957D
:10029000909595958795959587959595879595953D
:1002A0008795842B952B30E02F673F6F20953095F5
:1002B000220F232F221F330B220F331F220F331F36
:1002C000220F331F822B932B8230910561F01CF497
:1002D000019739F00DC08430910539F0089739F055
:1002E00007C0C9E305C0C6E303C0C3E301C0CDE353
:1002F00083E00E94E40187EA91E60197F1F700C0EC
:10030000000036B146B196B126B150E04F6D5F6F37
:1003100040955095559547955595479555954795D1
:100320005595479555954795440F551F892F90E052
:100330008F6B9F6F80959095082E892F000C881FDA
:10034000990B000C881F991F880F991F880F991F00
:10035000482B592B832F90E08F6E9F6F809590953F
:100360009595879595958795959587959595879575
:10037000842B952B30E02F673F6F20953095220F0F
:10038000232F221F330B220F331F220F331F220F65
:10039000331F822B932B8230910561F01CF401975F
:1003A00039F00DC08430910539F0089739F007C055
:1003B000CFE205C0C8E503C0CDE201C0CBE20E9498
:0803C00028028C2FCF91089553
:1003C800811105C04098419A429A439A0EC08130E3
:1003D80029F4409A4198429A439A0895823029F420
:1003E800409A419A4298439A0895833021F4409A5A
:0803F800419A429A43980895CE
:100400000E9417028FEF84B912E0D8E0C1E00E9489
:100410004000823331F0833331F0813331F4C5B998
:0E042000F6CF15B9F4CFD5B9F2CF15B8F0CF9D
:10042E00389A399A3A9A3B9A3C983D983E983F981A
:10043E00449A459A469A479A409A419A429A439AC2
:02044E0008950F
:0A045000409A419A429A439A089597
:04045A000C940000FE
:00000001FF
